:100000000C9470000C9493090C946C090C94980057
:100010000C9498000C9498000C9498000C94980000
:100020000C9498000C9498000C9498000C949800F0
:100030000C9498000C9498000C9498000C949800E0
:100040000C948E1B0C9498000C94290B0C94030BAD
:100050000C9498000C9498000C9498000C949800C0
:100060000C94B8040C9498001F1C1F1E1F1E1F1F09
:100070001E1F1E1F7C3C3E5E2B3D3F2F5B5D3B2CBD
:100080002A225C0000000000240027002A00000053
:100090000000250028002B0000000000230026009F
:1000A00029000404040404040404020202020202FB
:1000B000030303030303010204081020408001022C
:1000C00004081020010204081020000000080002AB
:1000D000010000030407000000000000000092225D
:1000E00011241FBECFEFD8E0DEBFCDBF13E0A0E0EC
:1000F000B1E0EAECF3E502C005900D92A432B1073D
:10010000D9F727E0A4E2B3E001C01D92AA34B207F8
:10011000E1F710E0C0E7D0E004C02197FE010E94A3
:100120006523CF36D107C9F70E94D81B0C94E32969
:100130000C940000809177038F3F39F48EBD00004E
:100140000DB407FEFDCF8EB50895F894E0917503C8
:10015000F0917603908180917403892B8083E091E4
:100160007203F091730330917103A0916F03B0910A
:10017000700350916E03432F409598E080E02081FA
:10018000232B2083880F2C91252309F08160208167
:100190002423208300000000915089F7789408956B
:1001A000909177039F3F39F48EBD00000DB407FE98
:1001B000FDCF8EB50895F894E0917203F09173032A
:1001C00040917103942F9095A0917503B09176039F
:1001D00050917403652F609528E030813923308376
:1001E0003C9187FF02C0352B01C036233C93308100
:1001F000342B3083880F215081F70000000000006D
:100200000000808198239083789408959CB5282FCE
:1002100023709C7F922B9CBD2DB582FB992790F972
:10022000822F8E7F892B8DBD08950895E091A003C4
:1002300080919F03E81730F4F0E0EC53FC4F80818D
:1002400090E008958FEF9FEF08959091A003809123
:100250009F03981750F4E92FF0E0EC53FC4F2081F6
:1002600030E09F5F9093A00302C02FEF3FEFC901E2
:10027000089580919F0390E02091A003821B910933
:10028000089585ED8093BC008091BC0084FDFCCF77
:1002900010920A04089540914903262F30E0240F5C
:1002A000311D21323105DCF420910A042430C9F4D7
:1002B000FC0180E090E0861758F4309149032191C9
:1002C000DC01A95DBC4FA30FB11D2C930196F3CFA8
:1002D00080914903680F6093490380E0089581E0AD
:1002E000089582E00895CF92DF92EF92FF920F93EC
:1002F0001F93CF93DF937C01262F972F8A01809144
:10030000C303882391F0C62FD72F6E01C40ED51ECC
:10031000CC15DD0571F06991D701ED91FC9101904B
:10032000F081E02DC7010995F3CF642F822F0E9441
:100330004B01C801DF91CF911F910F91FF90EF907A
:10034000DF90CF900895CF93DF931F92CDB7DEB7A4
:1003500069832091C3032223D1F02091C10320326D
:1003600040F021E030E0FC013383228380E090E024
:1003700015C08091C203E82FF0E0EF55FC4F998142
:1003800090838F5F8093C2038093C10305C061E0B7
:10039000CE0101960E944B0181E090E00F90DF9129
:1003A000CF9108950F931F93CF93DF93EB010E949A
:1003B000821B8B010E949A008F3F49F00E94821B92
:1003C000601B710B6C177D07A8F380E001C081E012
:1003D000DF91CF911F910F91089561E0FC0184811D
:1003E0000C94B71ACF93DF93EC018E81882389F0A8
:1003F0008F8198859C012F5F3F4F38872F838230F4
:10040000924018F40E949A00F3CFCE010E94ED01B1
:100410001E82DF91CF910895CF92DF92FF920F93CA
:100420001F93CF93DF9300D000D0CDB7DEB76C0120
:10043000F62E29833A834B835C830E94F20160E0AD
:10044000F60184810E94B71A6CE271E0C6010E9435
:10045000D2018F2D80640E94D00008E110E05C8101
:100460004B813A812981DA01C901002E04C0B69579
:10047000A795979587950A94D2F729833A834B835A
:100480005C830E94D0000850110929813A814B8178
:100490005C81083FFFEF1F0731F7FF2029F088E05C
:1004A000F81204C087E803C085E901C08FEF0E94FD
:1004B000D00010E00E949A00F601828787FF04C0F6
:1004C0001F3F11F01F5FF6CF0F900F900F900F900E
:1004D000DF91CF911F910F91FF90DF90CF90089502
:1004E0000E94821B693C71058105910540F082E004
:1004F0000E948E1A892B19F481E080937803089565
:10050000AF92BF92CF92DF92EF92FF920F931F9321
:10051000CF93DF93EC016901C801820F931F8130F3
:10052000924008F070C08E81882371F08881998193
:10053000AA81BB81481759076A077B0729F48F8175
:100540009885C816D906B0F5488359836A837B839A
:100550008B85833039F089E0440F551F661F771F64
:100560008A95D1F79A01AB0161E1CE010E940C029C
:10057000882319F083E08D8346C00E94821B5B01B3
:100580000E949A008A878F3F49F40E94821B6A1951
:100590007B096D327140A0F38FE003C08E3F31F0D4
:1005A0008DE08D83CE010E94ED012DC018861F8243
:1005B00081E08E838F8198858C159D0540F40E9483
:1005C0009A008F819885019698878F83F3CF670172
:1005D000E00EF11ECE14DF0431F00E949A00F60105
:1005E00081936F01F7CF8F819885080F191F1887A6
:1005F0000F838985882319F00115124048F0CE0138
:100600000E94F20105C0CE010E94ED0180E001C010
:1006100081E0DF91CF911F910F91FF90EF90DF90DC
:10062000CF90BF90AF9008952F923F924F925F92DC
:100630006F927F928F929F92AF92BF92CF92DF92F2
:10064000EF92FF920F931F93CF93DF9300D0CDB71C
:10065000DEB7FC018581882309F4D9C0848180FF3D
:10066000D6C021E02A8343895489658976898285A9
:100670009385A485B585481759076A077B0709F450
:100680001A826F013A81832F90E0DE0111964D01AD
:100690003F01B6E06B0E711C892B09F47DC0D601B9
:1006A0001A964D915D916D917C911D975A01B1E023
:1006B000BB22F60125811A012B0189E0569447944B
:1006C000379427948A95D1F7838D948D223061F4E5
:1006D000FC01828D938DA48DB58DBC01CD01620D81
:1006E000731D841D951D45C0DC0114961C9111508D
:1006F0001221A114B104D1F4111118C0452B462BBD
:10070000472B51F4F6018789908DA18DB28D868398
:100710009783A087B1870AC046815781608571851C
:1007200093010E94810F882309F471C0F601238D83
:10073000348D86819781A085B1850297A109B10981
:10074000AC01BD01F901058404C0440F551F661FAB
:10075000771F0A94D2F786859785A089B189840F7F
:10076000951FA61FB71FBC01CD01610F711D811D13
:10077000911DD60114962C9126FF14C000915901A9
:1007800010915A0120915B0130915C016017710753
:100790008207930751F506C0FA81FF23C1F18981D1
:1007A00090E037C040E00E94980E882381F1F50167
:1007B000E55FFB4FD401CF010196E817F90719F067
:1007C00021912D93FACFEFEF8E1A9E0AF6018285C2
:1007D0009385A485B5850196A11DB11D8287938758
:1007E000A487B58780E090E057CF740101E010E066
:1007F0009501AB01BC0180910B0690910C060E9403
:100800008002882321F0BFEF8B1A9B0ADFCF8FEF86
:100810009FEF0F900F90DF91CF911F910F91FF905D
:10082000EF90DF90CF90BF90AF909F908F907F9090
:100830006F905F904F903F902F900895CF92DF92EE
:10084000EF92FF920F931F93CF93DF93EC018901F7
:10085000411551056105710511F482E167C08B8571
:10086000833039F0E9E0440F551F661F771FEA9582
:10087000D1F79A01AB0168E1CE010E940C028823F6
:1008800011F084E053C08C8598013E5F7901882384
:1008900029F1F801C12CD12C419150E0BA016D250C
:1008A000AB0194E0559547959A95E1F74627572770
:1008B000DC2CCC24C426D526CA01982F88279295F3
:1008C000907FC826D92665E0440F551F6A95E1F749
:1008D000C426D526EE15FF05F9F603C0CC24CA942C
:1008E000DC2C8EEF0E94D000F80181918F010E94D4
:1008F000D0000E151F05C1F78D2D0E94D0008C2D44
:100900000E94D0000E949A008A878F71853031F052
:1009100081E18D83CE010E94ED0109C068E572E09E
:10092000CE010E94D201811107C085E18D83CE01E5
:100930000E94ED0180E013C020E030E0A9016DE0ED
:10094000CE010E940C02811104C00E949A008823EB
:1009500011F084E1EBCFCE010E94ED0181E0DF9147
:10096000CF911F910F91FF90EF90DF90CF9008955E
:100970001F920F920FB60F9211242F933F934F9314
:100980005F936F937F938F939F93AF93BF93EF93F7
:10099000FF938091B900887F803609F49CC068F588
:1009A000883209F45BC090F4803109F454C038F403
:1009B000882309F4F6C0883009F44DC0F6C08831A8
:1009C00009F44CC0803209F45DC0EFC0803409F4F2
:1009D00068C048F4803309F455C0883309F0E5C095
:1009E00080930804D8C0803509F44FC0883509F4D5
:1009F0005DC0883409F0D9C0D6C0883909F4C7C0B1
:100A0000A8F4883709F467C038F4883609F463C05D
:100A1000803709F460C0C9C0883809F4B8C080398B
:100A200009F45FC0803809F0C0C05BC0803B09F4A6
:100A300086C038F4803A09F466C0883A09F47FC069
:100A4000B4C0803C09F4A7C0883C09F4A4C0883B2A
:100A500009F48AC0AAC08091050410C090910704CF
:100A600080910604981770F5E091070481E08E0FDD
:100A700080930704F0E0EC51FC4F80818093BB0031
:100A800085EC86C0809308048EC0E091070481E065
:100A90008E0F809307048091BB00F0E0EC51FC4F77
:100AA000808390910704809106046EC0E091070452
:100AB00081E08E0F809307048091BB00F0E0EC5141
:100AC000FC4F80838091090481116DC081E0809387
:100AD000040484EA61C083E080930A0410926D03E9
:100AE000CFCF80916D03803208F051C0E0916D034B
:100AF00081E08E0F80936D038091BB00F0E0E35B9B
:100B0000FC4F8083BDCF85EC8093BC0010920A041B
:100B100080916D03803230F4E0916D03F0E0E35B8F
:100B2000FC4F108260916D0370E0E0914B03F091F7
:100B30004C038DE493E0099510926D0336C084E078
:100B400080930A0410924A0310924903E0914703EC
:100B5000F0914803099580914903811105C081E016
:100B60008093490310922703E0914A0381E08E0F9E
:100B700080934A03F0E0E95DFC4F80818093BB00E5
:100B800090914A0380914903981708F479CF85E83A
:100B90008093BC000AC085EC8093BC0010920A04CC
:100BA00004C0109208040E944101FF91EF91BF918F
:100BB000AF919F918F917F916F915F914F913F91F5
:100BC0002F910F900FBE0F901F90189510920A044E
:100BD00081E0809309041092040461E082E10E94A4
:100BE000B71A61E083E10E94B71AE9EBF0E0808177
:100BF0008E7F808380818D7F808388E48093B8009E
:100C000085E48093BC00089508954F925F926F929F
:100C10007F929F92AF92BF92CF92DF92EF92FF921C
:100C20000F931F93CF93DF937AE0B72EDD24DA94EE
:100C30000CEA10E0E0ECEE2EE0E0FE2EF6E0AF2E47
:100C4000A2E0CA2E1092B5061092B3061092B0061A
:100C50001092AF061092B606B092AE06D09226035E
:100C6000D0922503D09277030E94821BEB0161E0B2
:100C70008091AE060E94E71A8AEA96E00E94ED0192
:100C80009FB6F89480912403811125C0F8018491C6
:100C9000F701249190E0880F991F8C579F4FFC011A
:100CA000A591B4918C91282321F461E08AE00E94FF
:100CB000B71A61E08AE00E94E71A8CB580618CBDAA
:100CC0008CB580648CBD61E08DE00E94E71A61E024
:100CD0008BE00E94E71A809124038F5F80932403A6
:100CE0009FBE83E00E9406015AE0952E8FEF0E947E
:100CF000D0009A949110FACF60E08091AE060E94E5
:100D0000B71A20E030E0A90160E08AEA96E00E948C
:100D10000C02982E8093B40681E0981649F00E9448
:100D2000821B6C1B7D0B613D774058F381E046C010
:100D30002AEA31E040E050E068E08AEA96E00E946A
:100D40000C0282FF03C09092B50610C044E0942EBE
:100D50000E949A008093B4069A949110F9CF8A3A2F
:100D600019F0C092AF0658C0C092B5068091B50682
:100D7000823021F0412C512C320105C0412C512CE4
:100D8000612C30E4732E20E030E0A90167E38AEAA9
:100D900096E00E940C02A301920169E28AEA96E0C1
:100DA0000E940C028093B406882359F00E94821B93
:100DB0006C1B7D0B613D774030F388E08093AF067C
:100DC0002BC08091B5068230D9F420E030E0A90133
:100DD0006AE38AEA96E00E940C02882319F0A09246
:100DE000AF061AC00E949A00807C803C19F483E010
:100DF0008093B5060E949A000E949A000E949A0071
:100E00008AEA96E00E94ED01809177038F3FA9F571
:100E100080E00E94060131C08AEA96E00E94ED015E
:100E200080E097E00E94100C60E081E00E9457187B
:100E300066EC71E080E097E00E94010B61E081E0E8
:100E40000E94571868ED71E080E097E00E94010B66
:100E500062E086E00E9457186BEE71E080E097E058
:100E60000E94010B85ED96E00E94F31660E177E2A7
:100E700080E090E00E94231BE5CE81E00E942817CD
:100E8000811105C080E00E942817882349F28091D3
:100E9000DA068111C5CF8091CE06803109F582E056
:100EA0008093DA061092EC061092ED061092EE0690
:100EB0001092EF068091CF069091D006A0E0B0E0AE
:100EC00025E0880F991FAA1FBB1F2A95D1F7809391
:100ED000E8069093E906A093EA06B093EB061FC0DC
:100EE000803209F09DCF83E08093DA064091D106ED
:100EF0005091D2066091D3067091D4064093EC06CF
:100F00005093ED066093EE067093EF0628EE36E000
:100F100087EB96E00E940510882309F481CF87EBC8
:100F200096E09093F1068093F00681E08093D906D5
:100F30001092DB061092DC061092DD061092DE069F
:100F40001092DF061092E0061092E1061092E2067F
:100F50001092E3061092E4061092E5061092E6065F
:100F60001092E706DF91CF911F910F91FF90EF90C4
:100F7000DF90CF90BF90AF909F907F906F905F90E9
:100F80004F9008950E94EA260895CF92DF92EF9243
:100F9000FF920F931F93CF93DF936C017A018B0124
:100FA000C0E0D0E0CE15DF0589F0D8016D918D014C
:100FB000D601ED91FC910190F081E02DC6010995DB
:100FC000892B11F47E0102C02196ECCFC701DF917D
:100FD000CF911F910F91FF90EF90DF90CF900895E8
:100FE000FC01918D828D981761F0828DDF01A80F31
:100FF000B11D5D968C91928D9F5F9F73928F90E053
:1010000008958FEF9FEF0895FC01918D828D9817C1
:1010100031F0828DE80FF11D858D90E008958FEFFE
:101020009FEF0895FC01918D228D892F90E0805CC7
:101030009F4F821B91098F73992708958DE096E049
:101040000E94120821E0892B09F420E0822F0895E4
:10105000FC01848DDF01A80FB11DA35ABF4F2C9155
:10106000848D90E001968F739927848FA689B78924
:101070002C93A089B1898C9180648C93938D848DFD
:10108000981306C00288F389E02D80818F7D8083CC
:101090000895EF92FF920F931F93CF93DF93EC018C
:1010A00081E0888F9B8D8C8D981305C0E889F98924
:1010B000808185FD24C0F62E0B8D10E00F5F1F4F41
:1010C0000F731127E02E8C8DE8120CC00FB607FCB1
:1010D000FACFE889F989808185FFF5CFCE010E949A
:1010E0002808F1CF8B8DFE01E80FF11DE35AFF4F69
:1010F000F0820B8FEA89FB898081806207C0EE89CC
:10110000FF896083E889F98980818064808381E038
:1011100090E0DF91CF911F910F91FF90EF90089594
:10112000CF93DF93EC01888D8823C9F0EA89FB898E
:10113000808185FD05C0A889B9898C9186FD0FC085
:101140000FB607FCF5CF808185FFF2CFA889B9895A
:101150008C9185FFEDCFCE010E942808E7CFDF916B
:10116000CF91089580E090E0892B29F00E941E081D
:1011700081110C940000089521E001C0220F6A95AE
:10118000EAF7DC011C962C931C971A965C934E93FD
:101190001997ED91FC910084F185E02D60E00994B0
:1011A000DC01ED91FC910284F385E02D41E009958D
:1011B00081E090E0089508950895CF93DF93FC01B6
:1011C0002381222391F0EC01818180956823608343
:1011D00082810E94D518688184EF96E00E94A30165
:1011E0000E94DF18282F30E002C020E030E081E0CC
:1011F00090E0232B11F080E090E0DF91CF910895F3
:10120000EF92FF920F931F93CF938C01FC01759681
:1012100084E0C0E060FF02C09081C92B66958150D8
:1012200031968111F7CF413011F4F8014489F8016A
:101230008585C82BC42B7801FEE0EF0EF11CF80168
:1012400062896C2BC7010E94DD08F80162896095F4
:101250006C23C701CF911F910F91FF90EF900C94D9
:10126000DD080F931F93CF93DF93062F0F7042304B
:1012700019F440E0602F10C0142F262FEC0130E04D
:10128000B90184E0759567958A95E1F7CE010E94D2
:101290000009412F602FCE01DF91CF911F910F9157
:1012A0000C940009FC0184858823A9F021853285EE
:1012B0002115310519F4611106C007C0213031052F
:1012C00021F4611102C0858701C015866585CF01B3
:1012D0000E960C94DD0808951F920F920FB60F9290
:1012E00011242F933F934F935F936F937F938F932B
:1012F0009F93AF93BF93EF93FF93E0910201F0911F
:1013000003010995FF91EF91BF91AF919F918F914B
:101310007F916F915F914F913F912F910F900FBEF1
:101320000F901F9018951F920F920FB60F921124D5
:101330002F933F934F935F936F937F938F939F93DD
:10134000AF93BF93EF93FF93E0910001F091010100
:101350000995FF91EF91BF91AF919F918F917F91EF
:101360006F915F914F913F912F910F900FBE0F9012
:101370001F901895DC01ED91FC910190F081E02D1A
:1013800009946115710579F0FB0101900020E9F7DE
:101390003197AF01461B570BDC01ED91FC910280A8
:1013A000F381E02D099480E090E008954F925F92E0
:1013B0006F927F92EF92FF920F931F93CF93DF93E1
:1013C000CDB7DEB7A1970FB6F894DEBF0FBECDBF85
:1013D0007C01FA01CB0119A2223008F42AE08E0127
:1013E0000F5D1F4F422E512C612C712CBF01A301A8
:1013F00092010E943023F901CA01015011096A309B
:1014000014F4605D01C0695CD8016C93232B242B1C
:10141000252B61F7B801C7010E94C109A1960FB63B
:10142000F894DEBF0FBECDBFDF91CF911F910F911A
:10143000FF90EF907F906F905F904F9008954F9244
:101440005F926F927F928F929F92AF92BF92CF9254
:10145000DF92EF92FF92CF93DF93EC016A017B0161
:10146000B22E9A01AB01C701B6010E94B8258823AC
:1014700019F067E173E027C026013701E89477F897
:101480002FEF3FEF4FE75FE7C301B2010E94B8259E
:1014900081110DC02FEF3FEF4FE75FE7C301B201AE
:1014A0000E94E72318161CF46BE173E00CC02FEFC9
:1014B0003FEF4FE75FE4C701B6010E9446251816CB
:1014C0009CF46FE173E0CE01DF91CF91FF90EF903C
:1014D000DF90CF90BF90AF909F908F907F906F9054
:1014E0005F904F900C94C1092FEF3FEF4FE75FECF7
:1014F000C701B6010E94E72387FDE3CF20E030E07B
:10150000A901C701B6010E94E72387FF0AC06DE267
:10151000CE010E94BA094C01F7FAF094F7F8F09462
:1015200002C0812C912CA12C60E070E080E09FE350
:10153000AB1441F020E030E040E251E40E94EC23A3
:10154000A394F6CF9B01AC01C701B6010E947B2397
:101550002B013C010E9465246B017C010E949424B4
:101560009B01AC01C301B2010E947A232B013C0113
:101570002AE0B701A601CE010E94D6097C01E80C41
:10158000F91CBB2031F06EE2CE010E94BA09E80ED0
:10159000F91EDB2CDD2029F120E030E040E251E4AF
:1015A000C301B2010E944B252B013C010E9465241E
:1015B0004B01A12CB12C2AE0B501A401CE010E945F
:1015C000D609E80EF91EC501B4010E9494249B01BE
:1015D000AC01C301B2010E947A232B013C01DA94D1
:1015E000D9CFC701DF91CF91FF90EF90DF90CF90DF
:1015F000BF90AF909F908F907F906F905F904F9033
:1016000008950C94C1091F920F920FB60F921124E6
:101610002F933F934F935F936F937F938F939F93FA
:10162000AF93BF93EF93FF938DE096E00E9428085D
:10163000FF91EF91BF91AF919F918F917F916F91AA
:101640005F914F913F912F910F900FBE0F901F9080
:1016500018951F920F920FB60F9211242F938F930C
:101660009F93EF93FF93E0911D06F0911E068081FA
:10167000E0912306F091240682FD12C090818091B2
:1016800026068F5F8F7320912706821751F0E09115
:101690002606F0E0E35FF94F958F8093260601C0A0
:1016A0008081FF91EF919F918F912F910F900FBEAD
:1016B0000F901F9018952F923F924F925F926F92CA
:1016C0007F928F929F92AF92BF92CF92DF92EF92D2
:1016D000FF920F931F93CF93DF9300D000D01F9200
:1016E000CDB7DEB78D83962E242E59010E94821B22
:1016F0006B017C01312C812C822D90E09C838B83AB
:101700002801612C712C321408F04DC08D810E948B
:10171000D518692D84EF96E00E94A3010E94DF187E
:101720008D810E94D5186B817C81631971096132AA
:10173000710514F060E270E0613208F060E28D81C2
:101740000E9491181092A00380939F0390919F0391
:101750008091A003981701F10115110581F4F5019D
:10176000E80DF11D87FCFA95FA83E98384EF96E092
:101770000E942501E981FA8180838394E7CF0E944A
:10178000821BDC01CB018C199D09AE09BF098415B0
:101790009505A605B70518F3822DF0E2F21508F4B9
:1017A00080E2380EB0CF01151105C9F00E94821BEE
:1017B000DC01CB018C199D09AE09BF0920E030E0A6
:1017C00080179107A207B30750F0312C882D082C01
:1017D000000C990B8215930514F488248A94882DA3
:1017E0000F900F900F900F900F90DF91CF911F915E
:1017F0000F91FF90EF90DF90CF90BF90AF909F90B0
:101800008F907F906F905F904F903F902F900895B2
:10181000DC01ED91FC910284F385E02D40E0099418
:1018200061E00E94080C8BE39FE10197F1F70895B6
:101830000F931F93CF93DF93EC01423018F08C810C
:1018400088608C834F836887222329F0413019F404
:101850008C8184608C8364E670E080E090E00E947C
:10186000231B6C8164FD31C0E881F9810284F3851A
:10187000E02D42E063E0CE0109958BE496E4019708
:10188000F1F7E881F9810284F385E02D42E063E01D
:10189000CE01099503E512E0C8010197F1F7E8814F
:1018A000F9810284F385E02D42E063E0CE010995E1
:1018B000C8010197F1F7E881F9810284F385E02DF1
:1018C00042E062E0CE01099517C06062CE010E943D
:1018D000080C8BE496E40197F1F76C816062CE010D
:1018E0000E94080C03E512E0C8010197F1F76C8132
:1018F0006062CE010E94080CC8010197F1F76C816B
:101900006062CE010E94080C8BEE90E00197F1F727
:1019100084E08D836CE0CE010E94080CCE010E9411
:10192000100C82E08E8366E0CE010E94080CE881F4
:10193000F9810084F185E02D6FEFCE01DF91CF9129
:101940001F910F910994FF920F931F93CF93DF93F1
:10195000EC01162F042FF22E8B85888B1092A0039A
:1019600010929F031092C2031092C1030E94E605D9
:1019700088890E94D5180E94DF1891E0811190E0BB
:10198000998B992329F084EF96E00E9425018E8798
:101990008989882339F01F861C8260E0CE010E966B
:1019A0000E94DD082F2D402F612FCE01DF91CF91B6
:1019B0001F910F91FF900C94180CCF92DF92EF9231
:1019C000FF920F931F93CF93DF93EC0188E60E9461
:1019D000D51860E084EF96E00E94A3010E94DF1812
:1019E00067E088E60E9491181092A00380939F03FD
:1019F00084EF96E00E9425018F77982F92959F7033
:101A00001AEF082F919F000D112484EF96E00E9499
:101A100025019C01332794E0359527959A95E1F7A8
:101A2000F82E129FF00C112484EF96E00E942501FD
:101A30009C01332744E0359527954A95E1F7E82E38
:101A4000129FE00C112484EF96E00E94250184EFA0
:101A500096E00E9425019C01332754E03595279597
:101A60005A95E1F7D82E129FD00C112484EF96E0FE
:101A70000E9425019C01332764E0359527956A95DE
:101A8000E1F7C82E129FC00C112484EF96E00E944B
:101A900025019C01332774E0359527957A95E1F768
:101AA000129F800D11248883C982DA82EB82FC8226
:101AB0000D83CE01DF91CF911F910F91FF90EF9099
:101AC000DF90CF900895FC0161819081492F50E013
:101AD000228130E0E8E6F0E081E08E1B782F7E0F77
:101AE000761728F47491270F311D3196F7CF6330A4
:101AF00020F0937011F42F5F3F4F6DE671E0469F29
:101B0000C001479F900D569F900D112405964D5F83
:101B10005F4F5695479556954795840F951F820FB1
:101B2000931F67E070E00E941C230895FC01DB0115
:101B300012968D919C911397938382838AE891E00A
:101B40009183808314968C911497848315968C913D
:101B50001597858316964D915D916D917C9119979E
:101B600046835783608771871A964D915D916D9179
:101B70007C911D9742875387648775871E964D9188
:101B80005D916D917C91519746875787608B718BE2
:101B900052968C915297828B53964D915D916D9197
:101BA0007C915697438B548B658B768B57964D91D2
:101BB0005D916D917C915A97478B508F618F728F99
:101BC0005B968D919C915C97948F838F0895DC0137
:101BD0005996ED91FC915A973097B9F08389948981
:101BE000A589B6894285538564857585841B950BC7
:101BF000A60BB70B811520E89207A105B10538F0B7
:101C00008FEF9FE7A0E0B0E0089580E090E00895B6
:101C1000CF93DF931F92CDB7DEB76983DC01ED91DF
:101C2000FC910280F381E02D41E050E0BE016F5F46
:101C30007F4F09950F90DF91CF910895FC01818D21
:101C4000928D009711F00C9414038FEF9FEF08957D
:101C500080919A038823A9F14091590150915A012A
:101C600060915B0170915C012BE034E080910B0688
:101C700090910C060E941E04811102C080E008951C
:101C800040919B0350919C0360919D0370919E0332
:101C9000411551056105710591F02BE034E080910B
:101CA0000B0690910C060E941E04882339F31092B3
:101CB0009B0310929C0310929D0310929E0310921E
:101CC0009A0381E00895EF92FF920F931F93CF93B1
:101CD000DF93EC017B018A011B821A8288EE93E07C
:101CE000A0E0B0E08C839D83AE83BF8387E691E064
:101CF000998388838DE190E00E94BD259A8F898F1A
:101D0000009779F02DE1F701DC0101900D922A9501
:101D1000E1F74CE050E0B801CE010C960E94FC26A1
:101D2000188EDF91CF911F910F91FF90EF90089542
:101D30008F929F92AF92BF92EF92FF920F931F9359
:101D4000CF934B015C01C42F8091590190915A01AE
:101D5000A0915B01B0915C0188159905AA05BB05AE
:101D600001F10E94280E811102C080E020C08BE0AA
:101D7000E82E84E0F82E00E012E020E030E0B5012B
:101D8000A40180910B0690910C060E94800288238A
:101D900061F38092590190925A01A0925B01B09236
:101DA0005C0180919A03C82BC0939A0381E0CF9184
:101DB0001F910F91FF90EF90BF90AF909F908F90E9
:101DC00008954F925F926F927F928F929F92AF92FF
:101DD000BF92CF92DF92EF92FF920F931F93CF9318
:101DE000DF93EC016A017B01280139014230510582
:101DF0006105710510F480E073C089859A85AB8513
:101E0000BC850196A11DB11D84179507A607B707CC
:101E100090F38B889C88AD88BE888F89803129F4A7
:101E2000BB27AF2D9E2D8D2D09C0DB01CA0147E0D8
:101E3000B695A795979587954A95D1F7880E991EDF
:101E4000AA1EBB1E8091590190915A01A0915B017D
:101E5000B0915C0188169906AA06BB0679F48F89B1
:101E60008031A1F4DD24EE24FF24C601880F991FE0
:101E7000FC01E55FFB4F5182408219C040E0C50183
:101E8000B4010E94980E8111EACFB5CFE894C7F84B
:101E9000DD24EE24FF24C601880F991F880F991FA7
:101EA000FC01E55FFB4F4082518262827382809128
:101EB0009A03816080939A038A89823080F08D81B1
:101EC0009E81AF81B885880E991EAA1EBB1E809286
:101ED0009B0390929C03A0929D03B0929E0381E08D
:101EE000DF91CF911F910F91FF90EF90DF90CF90F6
:101EF000BF90AF909F908F907F906F905F904F902A
:101F000008958F929F92AF92BF92CF92DF92EF92FD
:101F1000FF920F931F93CF93DF93FC0181859285EE
:101F2000A385B4850196A11DB11D84179507A60749
:101F3000B70710F480E05CC083899489A589B689CD
:101F4000C789C03129F4852E962EA72EBB2409C03F
:101F50004A015B01C7E0B694A79497948794CA9509
:101F6000D1F7E9016A017B018F01BC01CD01680D48
:101F7000791D8A1D9B1D8090590190905A01A09057
:101F80005B01B0905C01681579058A059B0599F4A1
:101F9000F80187898031A9F4B701A6015527662782
:101FA0007727440F551FFA01E55FFB4F8081918130
:101FB000A0E0B0E018C040E00E94980E8111E8CF88
:101FC000B9CFB701A6014F77552766277727440F6A
:101FD000551F440F551FFA01E55FFB4F808191812A
:101FE000A281B381BF7088839983AA83BB8381E078
:101FF000DF91CF911F910F91FF90EF90DF90CF90E5
:10200000BF90AF909F908F9008954F925F926F9284
:102010007F92AF92BF92CF92DF92EF92FF920F9397
:102020001F93CF93DF9300D000D0CDB7DEB78C01E4
:1020300049835A836B837C835901C12CD12C76014F
:10204000412C82E0582E612C712C49815A816B8180
:102050007C819E012F5F3F4FC8010E94810F882322
:1020600051F1D301C201F801058404C0880F991F02
:10207000AA1FBB1F0A94D2F7C80ED91EEA1EFB1E68
:1020800049815A816B817C818789803129F088EF71
:102090009FEFAFEFBFE004C088EF9FEFA0E0B0E09C
:1020A000481759076A077B0780F2F501C082D18281
:1020B000E282F38281E00F900F900F900F90DF91FA
:1020C000CF911F910F91FF90EF90DF90CF90BF9035
:1020D000AF907F906F905F904F9008953F924F9296
:1020E0005F926F927F928F929F92AF92BF92CF92A8
:1020F000DF92EF92FF920F931F93CF93DF93CDB7B1
:10210000DEB72C970FB6F894DEBF0FBECDBF5C01D3
:10211000DC015B968D909C905C971696CD90DD903F
:10212000ED90FC901997C114D104E104F10439F049
:10213000BFEFCB1ADB0AEB0AFB0A312C07C0F40114
:10214000C080D180E280F38033243394F401818510
:102150009285A385B4859C01AD012F5F3F4F4F4F02
:102160005F4F29873A874B875C87260137011D829D
:102170001E821F821886F40181859285A385B4850D
:102180002D813E814F815885281739074A075B0703
:1021900008F063C089859A85AB85BC858C159D0543
:1021A000AE05BF0550F482E0C82ED12CE12CF12CF5
:1021B00092E0492E512C612C712C9E012F5F3F4FD4
:1021C000B701A601C4010E94810F882309F445C00C
:1021D00089819A81AB81BC81892B8A2B8B2B41F021
:1021E000260137019FEF491A590A690A790A05C081
:1021F000C414D504E604F70491F02D813E814F818B
:1022000058852F5F3F4F4F4F5F4F2D833E834F8346
:1022100058873FEFC31AD30AE30AF30AACCF0FEF94
:102220001FEF2FEF3FE0B301A201C4010E94E10EB6
:10223000882399F0D50116964D915D916D917C9111
:102240001997411551056105710549F09301820106
:10225000C4010E94E10E811102C080E02AC0D501B4
:1022600016964D925D926D927C921997332051F0A3
:10227000D301C2010196A11DB11DF4018083918398
:10228000A283B383F5018789908DA18DB28D892BAF
:102290008A2B8B2B69F4D50157964D925D926D92E6
:1022A0007C925A9714968C911497806814968C930C
:1022B00081E02C960FB6F894DEBF0FBECDBFDF9144
:1022C000CF911F910F91FF90EF90DF90CF90BF9033
:1022D000AF909F908F907F906F905F904F903F90C6
:1022E0000895CF93DF93EC018D818823A1F18C8138
:1022F00087FF2DC06E857F858889998941E00E947E
:10230000980E882341F1EA8980E2E89FF0011124C8
:10231000DF01A55FBB4F1097F1F08D81823050F443
:102320004B895C896D897E895C964D935D936D9335
:102330007C935F978F89988DA98DBA8DE55FFB4F50
:10234000938F828FB58BA48B8C818F778C83DF9159
:10235000CF910C94280E80E0DF91CF910895FC017D
:10236000818D928D009711F00C94711108958F92C8
:102370009F92AF92BF92CF92DF92EF92FF920F9314
:102380001F93CF93DF93EC018D81811102C080E018
:1023900077C00B891C892D893E89041715072607EC
:1023A0003707A8F36A017B01823029F4CA86DB86ED
:1023B000EC86FD860DC0C114D104E104F10451F492
:1023C0001E821F82188619861A861B861C861D8609
:1023D00081E056C08A849B84AC84BD84EB8DFC8DE7
:1023E000258530E0275F3F4FB501A40141505109D9
:1023F00061097109022E04C0769567955795479536
:102400000A94D2F7D701C6010197A109B10904C006
:10241000B695A795979587952A95D2F7841795072E
:10242000A607B70720F089288A288B2849F44F8906
:10243000588D698D7A8D4E835F836887798704C054
:10244000841B950BA60BB70B4C015D018E010A5F37
:102450001F4F81149104A104B10409F4A7CF4E8148
:102460005F816885798598018B8D9C8D0E94810F95
:1024700091E0891A9108A108B1088111EACF87CFAC
:10248000DF91CF911F910F91FF90EF90DF90CF9050
:10249000BF90AF909F908F9008950F931F93CF930D
:1024A000DF93FC01818D928D0097B9F0EF010E94BE
:1024B00014038C010F3F8FEF180791F0898D9A8DCF
:1024C000FC01428553856485758541505109610938
:1024D00071090E94B711C80105C080E090E002C0F8
:1024E0008FEF9FEFDF91CF911F910F9108952F9262
:1024F0003F924F925F926F927F928F929F92AF9294
:10250000BF92CF92DF92EF92FF920F931F93CF93E0
:10251000DF9300D000D0CDB7DEB78C015B011A018C
:10252000DC0115968C9115978130C9F414968C9125
:1025300081FF15C082FF1BC0F8014389548965895A
:10254000768982859385A485B58584179507A60726
:10255000B70769F0C8010E94B711811108C081E076
:1025600090E0F8019383828380E090E039C16101BB
:1025700083C0D8015B968D919C915C97FC0124816E
:1025800021502A013B0139E076946794579447948F
:102590003A95D1F7722E74207A01F1E0FF2277206C
:1025A00009F476C080E092E08E199F0946018C15EF
:1025B0009D0508F44C01D8015B962D913C915C97E8
:1025C00016968D919D910D90BC91A02D0297A10919
:1025D000B109F901058404C0880F991FAA1FBB1F08
:1025E0000A94D2F74685578560897189840F951FB3
:1025F000A61FB71F9C01AD01270D311D411D511DA7
:1026000029013A01811432E0930609F088C08091D3
:10261000590190915A01A0915B01B0915C01841520
:102620009505A605B70559F48FEF9FEFDC01809360
:10263000590190935A01A0935B01B0935C019501FD
:10264000B301A20180910B0690910C060E941E041A
:10265000882309F484CF9EEFB91AC818D908F80165
:1026600082859385A485B585880D991DA11DB11D11
:1026700082879387A487B587D8011A964D915D917B
:102680006D917C911D97C114D10409F072CF87C060
:10269000E114F10409F086CF16964D915D916D918C
:1026A0007C911997411551056105710559F45796AB
:1026B0008D919D910D90BC91A02D0097A105B10524
:1026C00041F521C09E012F5F3F4F0E94810F88235B
:1026D00009F44BCF89819A81AB81BC81F801238DAC
:1026E000348DF9012789203129F048EF5FEF6FEF32
:1026F0007FE004C048EF5FEF60E070E0841795076B
:10270000A607B70730F0C8010E946E1081114ACFAA
:1027100026CFF80186839783A087B18743CFE11442
:10272000F10429F5D8011A964D915D916D917C9136
:102730001D9753968D919D910D90BC91A02D48179A
:1027400059076A077B0798F00E94280E882309F42E
:1027500006CF4092590150925A0160925B017092EB
:102760005C0180919A03816080939A0308C041E0E4
:10277000C301B2010E94980E882309F4F0CED5015E
:10278000F701E55FFB4FCF01880D991DE817F907A9
:1027900019F02D912193FACFA80CB91C5ECF539656
:1027A0008D919D910D90BC91A02D84179507A60742
:1027B000B70740F4F801438B548B658B768B84818B
:1027C00080688483D80114968C9183FD02C0C10176
:1027D00007C0C8010E947111882309F4C0CEF7CF49
:1027E0000F900F900F900F90DF91CF911F910F914D
:1027F000FF90EF90DF90CF90BF90AF909F908F9021
:102800007F906F905F904F903F902F900895CF935F
:10281000DF93EC01898D9A8D009739F481E090E087
:102820009B838A8380E090E00BC0FC0113821282BC
:102830000E947712E98DFA8D22813381232B71F763
:10284000DF91CF910895CF93DF931F92CDB7DEB77D
:10285000698341E050E0BE016F5F7F4F0E947712B5
:102860000F90DF91CF9108958F929F92AF92BF9278
:10287000CF92DF92EF92FF920F931F93CF93DF934C
:1028800000D000D0CDB7DEB77C0180E2689F600148
:1028900011249601255F3B4FD9011B969C919171A4
:1028A00021F0842F827409F097C0142FF701628BF6
:1028B0008091590190915A01A0915B01B0915C0106
:1028C00086879787A08BB18BF601E55FFB4F448924
:1028D000558960E070E0BA0155274427D701579623
:1028E0004D935D936D937C935A97828D938DA0E069
:1028F000B0E0482B592B6A2B7B2BD70157964D9371
:102900005D936D937C935A97D9011B968C91887136
:1029100059F4848D958DA68DB78DF701838B948B9B
:10292000A58BB68B81E012C0803109F055C09701AC
:102930002D5E3F4FD7015B968D919C915C970E94D5
:102940000510882309F448C084E0F7018583812FAE
:102950008F70D70114968C931497F7011682178203
:10296000108611861A961D921D921D921C921D971B
:1029700016FF34C015968C91813071F511FF2CC073
:10298000F7014389548965897689452B462B472B66
:1029900009F461C040E050E0BA01C7010E94B711DC
:1029A0008823D1F0F7018788908CA18CB28CC38CDE
:1029B000D48C82E090E0A0E0B0E0F60180839183C7
:1029C000A283B3839E012F5F3F4FB501A401C601CF
:1029D0000E94810F811104C080E03DC081E03BC0B6
:1029E00000E010E09801B501A401C6010E94E10ECB
:1029F000882391F389809A80AB80BC80D60157965A
:102A00008C91803129F088EF9FEFAFEFBFE004C0D9
:102A100088EF9FEFA0E0B0E088169906AA06BB06F3
:102A200088F2D70157961D921D921D921C925A97BB
:102A3000F701138A148A158A168A84818068848330
:102A4000C7010E947111882339F240E050E0BA01B9
:102A5000C7010E94B7110F900F900F900F90DF9158
:102A6000CF911F910F91FF90EF90DF90CF90BF908B
:102A7000AF909F908F9008954F925F926F927F9248
:102A8000AF92BF92CF92DF92EF92FF920F931F937C
:102A9000CF93DF93CDB7DEB72B970FB6F894DEBF99
:102AA0000FBECDBF7C01CE0101966C01FC0190E20E
:102AB0008BE08C0D91938E13FDCFDA0130E047E06F
:102AC0009D91992339F19E3219F0E4E7F0E00AC0B4
:102AD0004A3009F472C138E04AE0F2CF31968917E2
:102AE00009F46BC184918111F9CF431708F465C1D2
:102AF0008FED890F8E3508F060C181E0830FF601FC
:102B0000E30FF11D3FE9390F3A3108F490529083F9
:102B1000382FD6CF8981803209F44FC1B22E8B0174
:102B2000DB015B968D919C915C97F701948F838F6D
:102B300016961D921D921D921C921997FB011286EA
:102B4000138614861586712CF80182859385A485D9
:102B5000B585438954896589768984179507A607C1
:102B6000B70708F061C025E0B695A79597958795BA
:102B70002A95D1F7F82FFF706F2ED80115968C91FA
:102B8000823008F41AC1C8010E94140397FD15C1D0
:102B9000F80182859385A485B5854F96A11DB11D49
:102BA00082879387A487B587F0E26F9EC0011124C6
:102BB000BC01655F7B4F6115710509F4FEC0DB0147
:102BC0002C91222319F0253EC1F427C071100EC0AC
:102BD000F701628A4091590150915A0160915B015D
:102BE00070915C0146875787608B718BFC01E55FB4
:102BF000FB4F8081811113C015C04BE050E0C6012E
:102C00000E94EF26892B09F09FCF8B2D8073803394
:102C100009F4D3C04B2D662DCCC07720C9F27724A0
:102C2000739492CF772473948B2D8271823109F043
:102C3000C4C07720D1F0D7011E966D917D918D9102
:102C40009C91519741E00E94980E882309F4B5C0E9
:102C5000F7016289F0E26F9FB0011124655F7B4F3D
:102C60006115710509F079C0A8C0D80115968C913D
:102C7000823009F4A2C0C8010E946E10882309F4B2
:102C80009CC0D8015B96ED91FC915C9716964D9097
:102C90005D906D907C901997B2E04B1A51086108D5
:102CA0007108058404C0440C551C661C771C0A94EA
:102CB000D2F786859785A089B189480E591E6A1E6C
:102CC0007B1EA480E1E04E1A510861087108AA2019
:102CD00009F10E94280E882309F46FC0EBE0F4E0AC
:102CE000119226E0EB30F207D9F7D301C2018A0D29
:102CF000911DA11DB11D8093590190935A01A0937C
:102D00005B01B0935C0180919A03816080939A0388
:102D1000AA94DDCFD8015B96ED91FC915C9780E0A1
:102D200092E0A0E0B0E0058404C0880F991FAA1FBC
:102D3000BB1F0A94D2F7F8014389548965897689C3
:102D4000840F951FA61FB71F838B948BA58BB68B03
:102D5000D70152961C926BE074E080E2FB01119265
:102D60008A95E9F78BE0F601DB0101900D928A95D7
:102D7000E1F781E298E2DB0151969C938E935097A4
:102D800020E038E01F963C932E931E9753969C9319
:102D90008E93529759969C938E93589757963C933F
:102DA0002E9356970E94280E882339F04B2DF70159
:102DB0006289C7010E94341401C080E02B960FB6CF
:102DC000F894DEBF0FBECDBFDF91CF911F910F9161
:102DD000FF90EF90DF90CF90BF90AF907F906F907B
:102DE0005F904F900895CF93DF93EC010E94711193
:102DF000882311F01D8281E0DF91CF910895833007
:102E000081F028F4813099F08230A1F00895873064
:102E1000A9F08830B9F08430D1F4809180008F7DA2
:102E200003C0809180008F7780938000089584B5DF
:102E30008F7702C084B58F7D84BD08958091B000E6
:102E40008F7703C08091B0008F7D8093B00008958C
:102E50008F929F92AF92BF92CF92DF92EF92FF92AA
:102E6000CF93DF93C82F8AEA96E090930C06809365
:102E70000B06CC2369F1C53010F080E00DC140E0B5
:102E800060E070E0CB010E94980E8823B1F320E14E
:102E9000C29FC001112485509C4FFC01E254FE4F9B
:102EA00020812F7751F73C96408151816281738157
:102EB000443651056105710500F33497C080D18017
:102EC000E280F380C114D104E104F10421F4D5CFF0
:102ED000C12CD12C760140E0C701B6010E94980EAA
:102EE000882359F28091160490911704811592401D
:102EF00021F6A0911B04AA2309F4BFCF6091190405
:102F000070911A046115710509F4B7CF2091180466
:102F1000222309F4B2CFA093C9062093BB0680E018
:102F200030E0E1E0F0E0C82FAF01082E02C0440F0E
:102F3000551F0A94E2F72417350741F0982F8F5F49
:102F4000983089F789E08093C40697CF8093C406B0
:102F500020912104309122042115310519F040E01F
:102F600050E008C020912F0430913004409131048A
:102F7000509132042093BC063093BD064093BE06A8
:102F80005093BF0646015701860E971EA11CB11C27
:102F90008092CA069092CB06A092CC06B092CD0643
:102FA000E0911C04F0911D04F093D006E093CF064D
:102FB000B0E00E945223860E971EA81EB91E809272
:102FC000D1069092D206A092D306B092D40685E0A4
:102FD000EE0FFF1F8A95E1F7E150FE4FEF2FFF271D
:102FE000E6958E0E9F1EA11CB11C8092C506909284
:102FF000C606A092C706B092C80620911E04309162
:103000001F042115310521F0A90160E070E008C01E
:1030100040912B0450912C0460912D0470912E044A
:10302000D701C60188199909AA09BB09840F951F00
:10303000A61FB71F04C0B695A79597958795CA9503
:10304000D2F78093C0069093C106A093C206B093B6
:10305000C306853F2FE09207A105B10510F48CE06F
:1030600018C0853F9F4FA105B10510F480E111C044
:103070008091370490913804A0913904B0913A04BA
:103080008093D1069093D206A093D306B093D40632
:1030900080E28093CE0681E0DF91CF91FF90EF90A8
:1030A000DF90CF90BF90AF909F908F900895CF9377
:1030B000DF93CDB7DEB728970FB6F894DEBF0FBE0B
:1030C000CDBF1D8290E49E8324E12F8324E52887D1
:1030D00019829A8390E19B8390E59C8390910707E6
:1030E000691710F06FEF690F40910807262F30E045
:1030F000FE01E20FF31F403121F4943011F491816D
:1031000001C09581682F690F606880E097E028967C
:103110000FB6F894DEBF0FBECDBFDF91CF910C94F8
:10312000080C90910A049111FCCF91E090930A044D
:10313000909309042FEF2093080410920704260FA0
:10314000209306049093050490910504880F892B21
:103150008093050480910404813061F4109204048A
:10316000809105048093BB008091BC0083FDF8CF63
:1031700085EC01C085EE8093BC0080910A0481300B
:10318000E1F380910704861710F460910704A4EE20
:10319000B3E024EC33E0F9018E2F821B861718F47C
:1031A0008D918193F9CF862F089591E09093C30379
:1031B00080933C071092C2031092C103089520919E
:1031C000C10390913C07213208F04AC080910A0463
:1031D0008111FCCF32E030930A0431E030930904CE
:1031E0003FEF309308041092070420930604A1EAED
:1031F000B3E044EE53E0FA013E2F341B321718F4CB
:103200003D913193F9CF1092050420910504990F57
:10321000922B9093050490910404913061F41092E4
:103220000404909105049093BB009091BC0093FD21
:10323000F8CF95EC01C095EE9093BC0090910A04F4
:103240009230E1F3909108049F3F79F08091080457
:10325000803241F080910804803331F084E005C071
:1032600081E003C082E001C083E01092C2031092AB
:10327000C1031092C30308954F925F926F927F92A1
:103280008F929F92AF92BF92DF92EF92FF920F9335
:103290001F93CF93DF93C82FD62F7A0189010E9405
:1032A000821B4B015C018C2F0E94D5186D2F84EF7F
:1032B00096E00E94A3010E94DF188C2F0E94D5186F
:1032C00062E08C2F0E9491181092A00380939F03BC
:1032D000D1E0C0E02801612C712CDD24D3949091C1
:1032E0009F038091A003981751F1C11128C00115C7
:1032F0001105B1F484EF96E0DD2331F00E94250141
:10330000F701108281830AC00E942501F701208104
:103310003181822B932B91838083C1E0DD25DFCF28
:103320000E94821BDC01CB0188199909AA09BB09FB
:1033300084159505A605B705E8F2F12C01C0FC2E11
:103340000E94DF180115110599F00E94821BAB0144
:10335000BC01481959096A097B09C801A0E0B0E01D
:10336000481759076A077B0718F0F11001C0CFEF23
:103370008C2FDF91CF911F910F91FF90EF90DF90F5
:10338000BF90AF909F908F907F906F905F904F9085
:1033900008950F931F93CF93DF931F92CDB7DEB79E
:1033A0008A0169830E94D518698184EF96E00E94A2
:1033B000A301F801608184EF96E00E94A3010E94BE
:1033C000DF1891E0811190E0892F0F90DF91CF916C
:1033D0001F910F910895CF93DF9300D0CDB7DEB743
:1033E0001A82198228EE33E0AE014F5F5F4F63EE21
:1033F000809119070E943C198130D1F469817A814A
:103400006C7F80E090E00E94942422E538EB4FE24C
:1034100053E40E944B2520E030E040E857E30E944F
:103420004B2526E636E64BE352E40E947A2304C09D
:1034300060E070E080EC9FE70F900F90DF91CF91FC
:103440000895CF93DF9300D0CDB7DEB71A821982EB
:1034500028EE33E0AE014F5F5F4F65EE80911907B4
:103460000E943C198130D1F469817A816C7F80E0BF
:1034700090E00E94942420E030E04AEF52E40E9461
:103480004B2520E030E040E857E30E944B2520E048
:1034900030E040EC50E40E947A2304C060E070E029
:1034A00080EC9FE70F900F90DF91CF910895CF921E
:1034B000DF92EF92FF920F931F93CF93DF936B01F5
:1034C000770FEE08FF08F7FE1BC0EC016DE20E94CB
:1034D000BA098C0144275527BA014C195D096E09B8
:1034E0007F092AE0CE010E94D609800F911FDF914B
:1034F000CF911F910F91FF90EF90DF90CF900895A3
:103500002AE0B701A601DF91CF911F910F91FF90A3
:10351000EF90DF90CF900C94D6090895CF93DF936E
:10352000282F30E0F901E653FF4F8491F901EA5466
:10353000FF4FD491F901EE55FF4FC491CC2391F088
:1035400081110E94FF16EC2FF0E0EE0FFF1FE856EE
:10355000FF4FA591B491EC91ED2381E090E021F42F
:1035600080E002C080E090E0DF91CF9108951F934A
:10357000CF93DF93282F30E0F901E653FF4F84917A
:10358000F901EA54FF4FD491F901EE55FF4FC49170
:10359000CC23C9F0162F81110E94FF16EC2FF0E00A
:1035A000EE0FFF1FE257FF4FA591B4918FB7F8942C
:1035B000111105C09C91ED2FE095E92302C0EC911B
:1035C000ED2BEC938FBFDF91CF911F910895CF9397
:1035D000DF9390E0FC01EA54FF4F2491FC01EE558B
:1035E000FF4F8491882361F190E0880F991FFC01BF
:1035F000EC57FF4FC591D491FC01E257FF4FA591C5
:10360000B491611109C09FB7F894888120958223F5
:103610008883EC912E230BC0623061F49FB7F8943D
:103620003881822F809583238883EC912E2B2C93D5
:103630009FBF06C08FB7F894E8812E2B28838FBFD9
:10364000DF91CF9108958F929F92AF92BF92CF92C8
:10365000DF92EF92FF926B017C010E945D1B4B0198
:103660005C01C114D104E104F104F1F00E945D1B7E
:10367000DC01CB0188199909AA09BB09883E93404E
:10368000A105B10570F321E0C21AD108E108F108E3
:1036900088EE880E83E0981EA11CB11CC114D104D1
:1036A000E104F10419F7DDCFFF90EF90DF90CF90A8
:1036B000BF90AF909F908F9008953FB7F8948091FE
:1036C000420790914307A0914407B091450726B562
:1036D000A89B05C02F3F19F00196A11DB11D3FBF4A
:1036E000BA2FA92F982F8827820F911DA11DB11DD8
:1036F000BC01CD0142E0660F771F881F991F4A95D4
:10370000D1F708952FB7F89460913E0770913F0765
:1037100080914007909141072FBF08951F920F920B
:103720000FB60F9211242F933F938F939F93AF93D4
:10373000BF9380913E0790913F07A0914007B091C1
:10374000410730913D0723E0230F2D3720F40196E8
:10375000A11DB11D05C026E8230F0296A11DB11DB4
:1037600020933D0780933E0790933F07A093400727
:10377000B09341078091420790914307A09144077D
:10378000B09145070196A11DB11D8093420790930A
:103790004307A0934407B0934507BF91AF919F9112
:1037A0008F913F912F910F900FBE0F901F90189502
:1037B000CF93DF93CDB7DEB7CC57D1090FB6F894CE
:1037C000DEBF0FBECDBF789484B5826084BD84B562
:1037D000816084BD85B5826085BD85B5816085BD0C
:1037E00080916E00816080936E00109281008091C4
:1037F000810082608093810080918100816080934C
:103800008100809180008160809380008091B10070
:1038100084608093B1008091B00081608093B0009B
:1038200080917A00846080937A0080917A0082602F
:1038300080937A0080917A00816080937A008091F1
:103840007A00806880937A001092C100E0911D0692
:10385000F0911E0682E08083E0911906F0911A062D
:103860001082E0911B06F0911C068FEC8083109271
:103870002506E0912106F091220686E08083E09102
:103880001F06F0912006808180618083E0911F06F1
:10389000F0912006808188608083E0911F06F0917E
:1038A0002006808180688083E0911F06F0912006C9
:1038B00080818F7D808360E085EF91E00E94040627
:1038C00020E044E064E180E097E00E94A30C1092C5
:1038D000A00310929F031092C2031092C1030E9492
:1038E000E60562E082E00E94E71A08EE13E09E011E
:1038F0002F5F3F4F190146E16AEA80911C070E9441
:103900005B0B898190E0982F88272A81820F911D77
:1039100090932207809321078B8190E0982F88272E
:103920002C81820F911D90932407809323078D8112
:1039300090E0982F88272E81820F911D9093260763
:10394000809325078F8190E0982F88272885820F04
:10395000911D9093320780933107898590E0982FCD
:1039600088272A85820F911D90933407809333070F
:103970008B8590E0982F88272C85820F911D90933E
:103980003607809335078D8590E0982F88272E8500
:10399000820F911D90932807809327078F8590E0D1
:1039A000982F88272889820F911D90932A0780934A
:1039B0002907898990E0982F88272A89820F911DED
:1039C00090932C0780932B078B8990E0982F882762
:1039D0002C89820F911D90932E0780932D078D893E
:1039E00090E0982F88272E89820F911D90933007A1
:1039F00080932F0781E08093200780911907E59637
:103A00001FAEE597AE014C585F4F6EEF0E94C9198B
:103A10006FE070E080E090E00E94231B62E087E0AE
:103A20000E94E71A0E940506E0910007F091010745
:103A30000084F185E02D6FEF80E097E0099560E06C
:103A400081E00E94571862E072E080E097E00E94F7
:103A5000010B68EE73E080E090E00E94231B61E0C0
:103A600082E00E94571865E172E080E097E00E94D2
:103A7000010B68EE73E080E090E00E94231B63E09E
:103A800082E00E94571865E272E080E097E00E94B1
:103A9000010B60ED77E080E090E00E94231B80E066
:103AA00097E00E94100C60E088E00E94571865E3E0
:103AB00072E080E097E00E94010B61E082E00E94EA
:103AC00057186AE372E080E097E00E94010B62E021
:103AD00086E00E9457186BE472E080E097E00E9455
:103AE000010B68E873E180E090E00E94231B80E016
:103AF00097E00E94100C80E792E090930101809380
:103B00000001809169008C7F80936900E89A10928F
:103B100078030E94821B60939603709397038093AF
:103B2000980390939903009192031091930320912D
:103B30009403309195036B017C01C01AD10AE20A0B
:103B4000F30A41E1C41647E2D406E104F10458F057
:103B500021E02093910360939203709393038093E9
:103B600094039093950300918D0310918E032091FF
:103B70008F03309190036B017C01C01AD10AE20AD5
:103B8000F30A41EEC41643E9D40644E0E406F10426
:103B900058F021E020938C0360938D0370938E0383
:103BA00080938F0390939003009188031091890371
:103BB00020918A0330918B036B017C01C01AD10ADA
:103BC000E20AF30A41E2C4164EE4D406E104F10429
:103BD00058F021E020938703609388037093890352
:103BE00080938A0390938B0380911C0714EFE496D3
:103BF0001FAFE497AE014D585F4F64EF0E94C919A3
:103C000010933B070E945D1B6B017C0160937D0359
:103C100070937E0380937F03909380030E945D1BCB
:103C20008B019C010C191D092E093F0980913B074E
:103C30008E3259F0843349F0843751F0843B59F087
:103C4000843F61F040E050E00BC044E951E108C01E
:103C50004CE45DE105C04CEB54E302C04CE953E693
:103C600060E070E00417150726073707B8F2847381
:103C700029F460E070E080EC9FE767C108EE13E094
:103C80002DE137E043E066EF80911C070E945B0B5B
:103C9000E0913B07E295E695E695E37020911D07DC
:103CA000822F90E0A0E0B0E0BC015527442780912E
:103CB0001F07480F511D611D711D80911E0790E067
:103CC000982F8827480F591F611D711D88E090E0CB
:103CD0008E1B91096A017B0104C0F694E794D79486
:103CE000C7948A95D2F7ED96CCAEDDAEEEAEFFAEC0
:103CF000ED97CD28CE28CF2809F4BBCFC090370749
:103D0000D0903807E0903907F0903A0700EAC01ADF
:103D10000FE0D00AE108F108A7019601C701B6013A
:103D20000E940C238B019C01FCE03595279517958B
:103D30000795FA95D1F7E9960CAF1DAF2EAF3FAFBF
:103D4000E9970091210710912207A0912507B091D2
:103D50002607A70196010E945D234B015C01ADE09F
:103D6000B594A79497948794AA95D1F7A091270723
:103D7000B0912807E9962CAD3DAD4EAD5FADE9970A
:103D80000E945D23BB2797FDB095AB2F880D991D31
:103D9000AA1DBB1D0296A11DB11D22E0B595A795D8
:103DA000979587952A95D1F79C01AD0130584F4FD3
:103DB0005F4FA0913107B09132070E9452232B012F
:103DC0003C013FE076946794579447943A95D1F735
:103DD0004801110FAA08BB0842E0880C991CAA1CD4
:103DE000BB1C4A95D1F7A0912907B0912A07E99603
:103DF0002CAD3DAD4EAD5FADE9970E945D238B01CB
:103E00009C015BE035952795179507955A95D1F755
:103E1000E9960CAF1DAF2EAF3FAFE997A0912307F6
:103E2000B0912407A70196010E945D23DC01CB011C
:103E30006BE0B595A795979587956A95D1F7E99623
:103E4000CCACDDACEEACFFACE9978C0D9D1DAE1D8E
:103E5000BF1D880E991EAA1EBB1E0E2E04C0880C04
:103E6000991CAA1CBB1C0A94D2F702E0800E911C7C
:103E7000A11CB11C72E0B594A794979487947A958D
:103E8000D1F7ED962CAD3DAD4EAD5FADED97281958
:103E900039094A095B0960E573EC80E090E004C0F1
:103EA0009695879577956795EA95D2F70E940C23AA
:103EB00097FD0BC0660F771F881F991FA301920102
:103EC0000E94302369017A010AC0A30192010E9475
:103ED000302369017A01CC0CDD1CEE1CFF1C9927F4
:103EE000F7FC9A958F2D7E2D6D2D9B01AC010E94C4
:103EF0000C239B01AC01AEEDBBE00E9452234C01B0
:103F0000BB2497FCB094AB2CA3E4B3EEA7019601BD
:103F10000E946023BB2797FDB095AB2F880D991D9C
:103F2000AA1DBB1D8153914FAF4FBF4F44E0B595C4
:103F3000A795979587954A95D1F7BC01CD016C0D52
:103F40007D1D8E1D9F1D0E949624609379037093A2
:103F50007A0380937B0390937C0320E030E048EC6D
:103F600052E40E94EC230E945E24709382036093CB
:103F7000810380919103882309F4AAC0CE014E9653
:103F80000E94DD0C68EE73E080E090E00E94231B4D
:103F900080E097E00E94100C60E080E00E945718DB
:103FA000CE014E960E94630D1CE0819FC00111243A
:103FB000BC016C5F7E4F80E097E00E94010B60E0E7
:103FC0008AE00E9457188E8D90E08053984F9F93FF
:103FD0008F938F8D1F928F9388A11F928F9383E56C
:103FE00092E09F938F933F922F920E940B27B101F3
:103FF00080E097E00E94010B63E080E00E94571888
:1040000063E672E080E097E00E94010B63E08BE0E2
:104010000E9457188AA11F928F9389A11F928F9394
:1040200089E692E09F938F933F922F920E940B27F5
:10403000B10180E097E00E94C10964E772E080E08E
:1040400097E00E94C10963E081E10E94571867E789
:1040500072E080E097E00E94010B61E080E00E9446
:1040600057186BE772E080E097E00E94010B61E077
:104070008DE00E9457180E94211AAB01BC0122E07A
:1040800080E097E00E941F0A66E872E080E097E017
:104090000E94010B62E080E00E94571869E872E01C
:1040A00080E097E00E94010B0E94EB19AB01BC017C
:1040B00022E080E097E00E941F0A67E972E080E05A
:1040C00097E00E94010B0FB6F894DEBF0FBECDBF84
:1040D0001092910380918703882309F460C080E0E7
:1040E00097E00E94100C60E084E00E9457186AE993
:1040F00072E080E097E00E94010B61E080E00E94A6
:1041000057186BE772E080E097E00E94010B61E0D6
:104110008DE00E9457180E94211AAB01BC0122E0D9
:1041200080E097E00E941F0A66E872E080E097E076
:104130000E94010B62E080E00E94571869E872E07B
:1041400080E097E00E94010B0E94EB19AB01BC01DB
:1041500022E080E097E00E941F0A67E972E080E0B9
:1041600097E00E94010B63E080E00E94571868EA24
:1041700072E080E097E00E94010B63E08EE00E9415
:104180005718609181037091820380E097E00E944C
:10419000571A63EB72E080E097E00E94010B1092E7
:1041A000870380918C03882309F42AC187E00E9449
:1041B0008E1A892B09F022C165ED76E0C1010E94BB
:1041C000960DB101CE01CB960E94960D19A218A2B0
:1041D0008AE891E09F8F8E8F1BA221968FAD219749
:1041E00081111CC06C961FAE1EAE6C9788EE93E0DA
:1041F000A0E0B0E0A0968CAF9DAFAEAFBFAFA097F0
:1042000087E691E06A969FAF8EAF6A97E3961FAEFE
:104210001EAEE397A5961FAEA59732C0825023E14C
:1042200047EB52E0823048F465ED76E0CE014E96E1
:104230000E943C1581110EC0D5CFBE01655C7F4F39
:10424000CE014E960E943C15882361F2CE01CB969A
:104250000E94F31649A95AA96BA97CA9CE014E96D2
:104260000E94B711BE01625E7F4FC1010E94960D90
:1042700047EB52E0B101CE01885A9F4F0E94630E76
:10428000E396EEADFFADE397309709F4B7C08581B3
:10429000882309F4B3C0CE014E960E94DD0C68EE6F
:1042A00073E080E090E00E94231B8E8D90E08053AD
:1042B000984F9F938F938F8D1F928F9388A11F92FA
:1042C0008F9381EC92E09F938F933F922F920E9465
:1042D0000B27B101CE01885A9F4F0E94010B60ED60
:1042E00072E0CE01885A9F4F0E94010BCE014E967C
:1042F0000E94630D3CE0839FC0011124BC016C5FF0
:104300007E4FCE01885A9F4F0E94010B60ED72E0F4
:10431000CE01885A9F4F0E94010B8AA11F928F9352
:1043200089A11F928F9382ED92E09F938F933F928A
:104330002F920E940B27B101CE01885A9F4F0E94F5
:10434000010B60ED72E0CE01885A9F4F0E94010B75
:104350000E94EB19AB01BC0122E0CE01885A9F4FAD
:104360000E941F0A60ED72E0CE01885A9F4F0E94A2
:10437000010B0E94211AAB01BC0122E0CE01885A38
:104380009F4F0E941F0A60ED72E0CE01885A9F4F36
:104390000E94010B6091810370918203CE01885AC3
:1043A0009F4F0E94571A60ED72E0CE01885A9F4FCE
:1043B0000E94010B64E772E0CE01885A9F4F0E9471
:1043C000C109E3968EAD9FADE3970FB6F894DEBFBB
:1043D0000FBECDBF009761F00E94F316E3968EAD3D
:1043E0009FADE3970E945226E3961FAE1EAEE39761
:1043F00061E08CED92E00E94040602C00E94050676
:1044000010928C0380917803882319F160E08EEE7E
:1044100092E00E940406809178030E948D1A909188
:10442000580181E089278093580160E089EF92E08C
:104430000E940406809158010E948D1A80915801B3
:10444000882311F06FEF01C060E080E097E00E94E8
:10445000520980E480937C0080917A00806480938C
:104460007A0080917A0086FDFCCF809178002091BF
:10447000790090E0922B9093840380938303873B91
:104480009340DCF0809158018823B9F08091850336
:10449000811113C060E080E097E00E94520981E042
:1044A000809386031092580160E083E093E00E94BD
:1044B0000406809186030E948D1A809178038823D8
:1044C00021F080918603811103C00E94B2081FCBA6
:1044D0006FEF80E097E00E94520981E080938503AE
:1044E0001092860360E08DE093E00E9404068091C4
:1044F00085030E948D1A60E177E280E090E00E94DF
:10450000231B60E080E097E00E945209109285032F
:1045100060E08DE093E00E940406809185030E9494
:104520008D1AD3CFEDE0F6E01382128288EE93E08D
:10453000A0E0B0E084839583A683B7832AE731E0C7
:104540003183208325EC30E03587248724EC30E06C
:104550003787268720EC30E0318B208B21EC30E050
:10456000338B228B22EC30E0358B248B26EC30E031
:10457000378B268B118E128E138E148EEAEAF6E09C
:10458000158216821186138642E050E060E070E0EA
:10459000458756876787708B14A216A615A62AE84A
:1045A00031E034A723A710AAE4EFF6E013821282C9
:1045B00084839583A683B78382E991E09183808386
:1045C00087E780931C0780E480931907E0E0F7E019
:1045D000138212822AEB31E031832083108A9FEF0D
:1045E00097871686118A9FE393871486158612860D
:1045F000118694E0928B92E0938B91E0948B90E102
:10460000958B90E2968B878B80E8808F40E050E01E
:1046100063E0CF010C94BC08DB018F939F930E9451
:104620005223BF91AF91A29F800D911DA39F900D2A
:10463000B29F900D11240895AA1BBB1B51E107C026
:10464000AA1FBB1FA617B70710F0A61BB70B881F22
:10465000991F5A95A9F780959095BC01CD010895B1
:10466000A1E21A2EAA1BBB1BFD010DC0AA1FBB1F76
:10467000EE1FFF1FA217B307E407F50720F0A21BE8
:10468000B30BE40BF50B661F771F881F991F1A9455
:1046900069F760957095809590959B01AC01BD017F
:1046A000CF0108950E946B23A59F900DB49F900D9C
:1046B000A49F800D911D11240895B7FF0C945223DF
:1046C0000E945223821B930B0895EE0FFF1F05904B
:1046D000F491E02D0994A29FB001B39FC001A39F64
:1046E000700D811D1124911DB29F700D811D11242B
:1046F000911D08955058BB27AA270E9492230C941D
:104700000C250E94FE2438F00E94052520F039F483
:104710009F3F19F426F40C94FB240EF4E095E7FB7C
:104720000C94F524E92F0E941D2558F3BA1762074F
:1047300073078407950720F079F4A6F50C943F25BC
:104740000EF4E0950B2EBA2FA02D0B01B9019001AC
:104750000C01CA01A0011124FF27591B99F0593FF0
:1047600050F4503E68F11A16F040A22F232F342F38
:104770004427585FF3CF469537952795A795F04086
:104780005395C9F77EF41F16BA0B620B730B840B9B
:10479000BAF09150A1F0FF0FBB1F661F771F881F53
:1047A000C2F70EC0BA0F621F731F841F48F48795AB
:1047B00077956795B795F7959E3F08F0B0CF93959D
:1047C000880F08F09927EE0F9795879508950E9416
:1047D000D12408F481E008950E9400240C940C2553
:1047E0000E94052558F00E94FE2440F029F45F3F06
:1047F00029F00C94F52451110C9440250C94FB24C1
:104800000E941D2568F39923B1F3552391F3951B5D
:10481000550BBB27AA2762177307840738F09F5FE1
:104820005F4F220F331F441FAA1FA9F335D00E2E4E
:104830003AF0E0E832D091505040E695001CCAF7BB
:104840002BD0FE2F29D0660F771F881FBB1F26177E
:1048500037074807AB07B0E809F0BB0B802DBF0155
:10486000FF2793585F4F3AF09E3F510578F00C9424
:10487000F5240C9440255F3FE4F3983ED4F38695ED
:1048800077956795B795F7959F5FC9F7880F911D45
:104890009695879597F90895E1E0660F771F881F31
:1048A000BB1F621773078407BA0720F0621B730BE4
:1048B000840BBA0BEE1F88F7E09508950E946524DB
:1048C0006894B1110C94402508950E94252588F024
:1048D0009F5798F0B92F9927B751B0F0E1F0660FC4
:1048E000771F881F991F1AF0BA95C9F714C0B13005
:1048F00091F00E943F25B1E008950C943F25672F69
:10490000782F8827B85F39F0B93FCCF38695779533
:104910006795B395D9F73EF490958095709561951C
:104920007F4F8F4F9F4F0895E89409C097FB3EF447
:1049300090958095709561957F4F8F4F9F4F9923EC
:10494000A9F0F92F96E9BB279395F695879577956A
:104950006795B795F111F8CFFAF4BB0F11F460FF2A
:104960001BC06F5F7F4F8F4F9F4F16C0882311F082
:1049700096E911C0772321F09EE8872F762F05C096
:10498000662371F096E8862F70E060E02AF09A9531
:10499000660F771F881FDAF7880F9695879597F926
:1049A0000895990F0008550FAA0BE0E8FEEF1616C0
:1049B0001706E807F907C0F012161306E407F50713
:1049C00098F0621B730B840B950B39F40A2661F087
:1049D000232B242B252B21F408950A2609F4A1402A
:1049E000A6958FEF811D811D089597F99F6780E837
:1049F00070E060E008959FEF80EC089500240A9431
:104A00001616170618060906089500240A941216A9
:104A10001306140605060895092E0394000C11F4DC
:104A2000882352F0BB0F40F4BF2B11F460FF04C089
:104A30006F5F7F4F8F4F9F4F089557FD9058440FE2
:104A4000551F59F05F3F71F04795880F97FB991FED
:104A500061F09F3F79F087950895121613061406AA
:104A6000551FF2CF4695F1DF08C016161706180637
:104A7000991FF1CF86957105610508940895E89412
:104A8000BB2766277727CB0197F908950E94D12489
:104A900008F48FEF08950E945E250C940C250E9467
:104AA000FE2438F00E94052520F0952311F00C9487
:104AB000F5240C94FB2411240C9440250E941D2500
:104AC00070F3959FC1F3950F50E0551F629FF00161
:104AD000729FBB27F00DB11D639FAA27F00DB11D7A
:104AE000AA1F649F6627B00DA11D661F829F222703
:104AF000B00DA11D621F739FB00DA11D621F839F8A
:104B0000A00D611D221F749F3327A00D611D231F5F
:104B1000849F600D211D822F762F6A2F11249F57AD
:104B200050409AF0F1F088234AF0EE0FFF1FBB1FB0
:104B3000661F771F881F91505040A9F79E3F51056F
:104B400080F00C94F5240C9440255F3FE4F3983EEC
:104B5000D4F3869577956795B795F795E7959F5F19
:104B6000C1F7FE2B880F911D9695879597F90895AB
:104B70000E94D124880B990B0895CF93DF93823044
:104B8000910510F482E090E0E0914807F091490728
:104B900020E030E0C0E0D0E0309711F14081518159
:104BA00048175907C0F04817590761F4828193816B
:104BB000209719F09B838A832BC090934907809399
:104BC000480726C02115310519F04217530718F47C
:104BD0009A01BE01DF01EF010280F381E02DDCCFFD
:104BE0002115310509F1281B390B2430310590F4CA
:104BF00012968D919C9113976115710521F0FB011F
:104C00009383828304C09093490780934807FD01F2
:104C1000329644C0FD01E20FF31F8193919322501D
:104C200031092D933C933AC02091460730914707B4
:104C3000232B41F420915F013091600130934707AD
:104C40002093460720915D0130915E0121153105C9
:104C500041F42DB73EB74091610150916201241B90
:104C6000350BE0914607F0914707E217F307A0F4F0
:104C70002E1B3F0B2817390778F0AC014E5F5F4FB2
:104C80002417350748F04E0F5F1F50934707409396
:104C900046078193919302C0E0E0F0E0CF01DF91FD
:104CA000CF9108950F931F93CF93DF93009709F44B
:104CB0008CC0FC0132971382128200914807109138
:104CC00049070115110581F420813181820F931F5D
:104CD00020914607309147072817390779F5F09357
:104CE0004707E093460771C0D80140E050E0AE1797
:104CF000BF0750F412962D913C911397AD012115E9
:104D0000310509F1D901F3CF9D01DA013383228303
:104D100060817181860F971F8217930769F4EC01F8
:104D200028813981260F371F2E5F3F4F3183208323
:104D30008A819B8193838283452B29F4F0934907D1
:104D4000E093480742C01396FC93EE931297ED014F
:104D5000499159919E01240F351FE217F30771F411
:104D600080819181840F951F029611969C938E935A
:104D70008281938113969C938E931297E0E0F0E0EA
:104D8000D80112968D919C911397009719F0F80114
:104D90008C01F6CF8D919C9198012E5F3F4F820F31
:104DA000931F20914607309147072817390769F468
:104DB000309729F4109249071092480702C01382D5
:104DC00012821093470700934607DF91CF911F91FE
:104DD0000F91089581E090E0F8940C94E329FB0191
:104DE000DC0104C08D910190801921F441505040A4
:104DF000C8F7881B990B0895FB01DC014150504016
:104E000048F001900D920020C9F701C01D92415059
:104E10005040E0F70895AEE0B0E0E1E1F7E20C9435
:104E2000BA290D891E8986E08C831A8309838FEF46
:104E30009FE79E838D83AE01475E5F4F6F89788DBC
:104E4000CE0101960E942E272F813885F801E20FAE
:104E5000F31F10822E96E4E00C94D629ACE0B0E06B
:104E6000E4E3F7E20C94AC297C016B018A01FC01BC
:104E700017821682838181FFBDC1CE0101964C014C
:104E8000F7019381F60193FD859193FF81916F0165
:104E9000882309F4ABC1853239F493FD859193FFE2
:104EA00081916F01853229F4B70190E00E941629A3
:104EB000E7CF512C312C20E02032A0F48B3269F066
:104EC00030F4803259F0833269F420612CC08D3285
:104ED00039F0803339F4216026C02260246023C079
:104EE000286021C027FD27C030ED380F3A3078F414
:104EF00026FF06C0FAE05F9E300D1124532E13C02A
:104F00008AE0389E300D1124332E20620CC08E3280
:104F100021F426FD6BC1206406C08C3611F4206894
:104F200002C0883641F4F60193FD859193FF81918B
:104F30006F018111C1CF982F9F7D9554933028F434
:104F40000C5F1F4FFFE3F9830DC0833631F08337C9
:104F500071F0833509F05BC022C0F801808189833C
:104F60000E5F1F4F44244394512C540115C0380147
:104F7000F2E06F0E711CF801A080B18026FF03C023
:104F8000652D70E002C06FEF7FEFC5012C870E9496
:104F90000B292C0183012C852F77222E17C0380175
:104FA000F2E06F0E711CF801A080B18026FF03C0F3
:104FB000652D70E002C06FEF7FEFC5012C870E9466
:104FC00000292C012C852068222E830123FC1BC084
:104FD000832D90E048165906B0F4B70180E290E0C6
:104FE0000E9416293A94F4CFF50127FC859127FEFB
:104FF00081915F01B70190E00E94162931103A9427
:10500000F1E04F1A51084114510471F7E5C084369C
:1050100011F0893639F5F80127FF07C060817181E9
:10502000828193810C5F1F4F08C060817181072EC0
:10503000000C880B990B0E5F1F4F2F76722E97FF77
:1050400009C090958095709561957F4F8F4F9F4FC8
:105050002068722E2AE030E0A4010E944E29A82E7A
:10506000A81844C0853729F42F7EB22E2AE030E0FC
:1050700025C0F22FF97FBF2E8F36C1F018F4883586
:1050800079F0B4C0803719F0883721F0AFC02F2FE6
:105090002061B22EB4FE0DC08B2D8460B82E09C0E5
:1050A00024FF0AC09F2F9660B92E06C028E030E08A
:1050B00005C020E130E002C020E132E0F801B7FE97
:1050C00007C060817181828193810C5F1F4F06C090
:1050D0006081718180E090E00E5F1F4FA4010E940B
:1050E0004E29A82EA818FB2DFF777F2E76FE0BC029
:1050F000372D3E7FA51450F474FE0AC072FC08C020
:10510000372D3E7E05C0BA2C372D03C0BA2C01C006
:10511000B52C34FF0DC0FE01EA0DF11D80818033F6
:1051200011F4397E09C032FF06C0B394B39404C0B1
:10513000832F867809F0B39433FD13C030FF06C087
:105140005A2CB31418F4530C5B18B32CB31468F432
:10515000B70180E290E03C870E941629B3943C8519
:10516000F5CFB31410F43B1801C0312C34FF12C03A
:10517000B70180E390E03C870E9416293C8532FF0E
:1051800017C031FD03C088E790E002C088E590E0D9
:10519000B7010CC0832F867859F031FF02C08BE233
:1051A00001C080E237FD8DE2B70190E00E94162930
:1051B000A51438F4B70180E390E00E9416295A94B0
:1051C000F7CFAA94F401EA0DF11D8081B70190E0B8
:1051D0000E941629A110F5CF332009F451CEB70152
:1051E00080E290E00E9416293A94F6CFF70186817A
:1051F000978102C08FEF9FEF2C96E2E10C94C829B3
:10520000FC010590615070400110D8F78095909591
:105210008E0F9F1F0895FC01615070400190011096
:10522000D8F7809590958E0F9F1F08950F931F9329
:10523000CF93DF93FB01238121FD03C08FEF9FEF0D
:1052400028C022FF16C0468157812481358142172C
:10525000530744F4A081B1819D012F5F3F4F3183FB
:1052600020838C93268137812F5F3F4F378326839E
:1052700010C0EB01092F182F0084F185E02D09954E
:10528000892BE1F68E819F8101969F838E83812FEA
:10529000902FDF91CF911F910F910895FA01AA27C6
:1052A000283051F1203181F1E8946F936E7F6E5F69
:1052B0007F4F8F4F9F4FAF4FB1E03ED0B4E03CD017
:1052C000670F781F891F9A1FA11D680F791F8A1FFA
:1052D000911DA11D6A0F711D811D911DA11D20D061
:1052E00009F468943F912AE0269F11243019305D1B
:1052F0003193DEF6CF010895462F4770405D41930C
:10530000B3E00FD0C9F7F6CF462F4F70405D4A3358
:1053100018F0495D31FD4052419302D0A9F7EACF20
:10532000B4E0A6959795879577956795BA95C9F74F
:1053300000976105710508959B01AC010A2E069442
:105340005795479537952795BA95C9F7620F731FFB
:10535000841F951FA01D08952F923F924F925F9238
:105360006F927F928F929F92AF92BF92CF92DF9275
:10537000EF92FF920F931F93CF93DF93CDB7DEB7DA
:10538000CA1BDB0B0FB6F894DEBF0FBECDBF09946E
:105390002A88398848885F846E847D848C849B84C5
:1053A000AA84B984C884DF80EE80FD800C811B81D3
:1053B000AA81B981CE0FD11D0FB6F894DEBF0FBE02
:0A53C000CDBFED010895F894FFCF72
:1053CA00C407C40753756E646179000000000000C9
:1053DA004D6F6E64617900000000000054756573BA
:1053EA0064617900000000005765646E657364614A
:1053FA0079000000546875727364617900000000D6
:10540A004672696461790000000000005361747596
:10541A00726461790000000001FFFFFFFF00004A8B
:10542A0007800000000000080E0714E70D1E0E4D4D
:10543A0012AF1100E803000000004908C50712086E
:10544A00F00704089008000000002314C5070000B4
:10545A000000A3017301390125011601150100009D
:10546A000000C207C507C207C207C207C207000079
:10547A000000C207C50700000000D008C507A30C3A
:10548A00BC085209310953442043617264206E6F8B
:10549A007420666F756E6400496E7365727420615C
:1054AA0020666F726D617474656400534420636191
:1054BA00726420200053657269616C2042656769D5
:1054CA006E0044617665277320506F6F6C205461BB
:1054DA00626C65200048756D6964697479204C6F47
:1054EA00676765720028432920414750434F4D2082
:1054FA0032303137004974277300534F55544845A9
:10550A00524E20434F4D464F5254004F27436C6F23
:10551A00636B00253032752F253032752F253034D4
:10552A0075200054696D653A00253032753A253088
:10553A00327520000D0A004872730048756D69645F
:10554A006974793A200020250054656D706572618E
:10555A00747572653A2000204300446176652773AA
:10556A002043656C6C617200507265737375726565
:10557A003A2000206D420053444C6F672E637376C5
:10558A0000253032752F253032752F2530347500BD
:10559A002C00253032753A2530327500534420707C
:1055AA0072696E7420636F6D706C65746500666CE9
:1055BA00616742544E203D2000666C6167424C2070
:1055CA003D200069734461726B203D2000666C6166
:1055DA00674E4C203D20006E616E00696E66006F5A
:0455EA0076660000E1
:00000001FF
